:100000000200CC43878075985053890F438920752F
:0E0010008BFA758DFAC2ABD28ED2AFD2AC2273
:10002300020178D2A0D2A1120003E50A640360039F
:100033000200BE20902320912020921DE508701914
:10004300C2A0D2A17F107E2712015820900B2091CD
:1000530008209205D2A075080120931D20941AE56B
:10006300097016D2A0C2A17F107E271201582093D7
:1000730008209405750901D2A1E5087008E5097007
:1000830004C2A0C2A1E508B4010AE5097006C2A131
:10009300D2A0800DE5087009E509B40104D2A1C21C
:1000A300A0E508B40115E509B401107F021201812E
:1000B300D2A1D2A0E4F50AF508F509E50A60030226
:1000C300002DD2A0D2A102002D787FE4F6D8FD75D1
:1000D300810A020113020026E493A3F8E493A340E8
:1000E30003F68001F208DFF48029E493A3F85407B0
:1000F300240CC8C333C4540F4420C8834004F456AB
:10010300800146F6DFE4800B0102040810204080E2
:1001130090016EE47E019360BCA3FF543F30E50978
:10012300541FFEE493A360010ECF54C025E060A8E2
:1001330040B8E493A3FAE493A3F8E493A3C8C58275
:10014300C8CAC583CAF0A3C8C582C8CAC583CADFE3
:10015300E9DEE780BEEF1FAC0670011E4C600B00AA
:100163007D027CC7DCFEDDFC80EB22010A00010876
:10017300000109000030980585990AC298328F99C9
:060183003099FDC2992233
:00000001FF
