:100217000118000117000116000A0C3F065B4F6624
:0D0227006D7D077F6F02080000020A0000D5
:1001E20085080A85090B2090117F647E001202980F
:1001F200209007E4F508F5098006750800750901E5
:10020200E5094508600BE50B450A60057E007F01A4
:0402120022E4FEFFE5
:0102160022C5
:1002480020930C7F327E001202983093020518D357
:0E025800E5189409748094804003E4F51822A0
:10015800120281120017120248740C2518F8E6F5ED
:10016800A02094EF7F327E001202983094E51202AC
:10017800C4752000752101E4F51F120266C3E51855
:10018800951FF517240CF8E6F5A0E5177003120083
:10019800171201E2EF64014E7009C291F520752132
:1001A80001800D1201E2EF4E7006D291F520F52183
:1001B800E51E6401451D70C5F520F521F522F523DE
:1001C800F51DF51ED2917F031200033098FD051F1F
:0A01D800C29875200075210180A374
:0300230002000ECA
:09000E00309805859916C298325C
:10029800EF1FAC0670011E4C600B007D027CC7DCB2
:0502A800FEDDFC80EB0F
:0102AD00222E
:100281005389F0438901758A33758CFEC28DD28CF6
:07029100D2A9D2AFD2B922BD
:1002660043878075985053890F438920758BFA759B
:0B0276008DFAC2ABD28ED2AFD2AC2208
:080003008F993099FDC299228A
:10023400011F000222000002200000021D00000233
:030244001B00009C
:07001700751B00751C01229E
:0702C400751B00751C0322ED
:03000B00020026CA
:10002600C0E0C0F0C083C082C0D075D000C000C0A0
:0D00360001C002C003C004C005C006C00721
:10004300758A33758CFE051AE51A70020519E521C8
:100053006401452070220523E52370020522AE22A8
:10006300FFE4FCFD7B607AEAF9F8C31202AE700884
:10007300051EE51E7002051DC3E51A9428E51994B3
:10008300004006751900751A00D3E51A951CE51989
:10009300951B5002D292D3E51A951CE519951B4086
:0E00A3000DD3E51A9428E51994005002C2927C
:1000B100D007D006D005D004D003D002D001D000A3
:0B00C100D0D0D082D083D0F0D0E0324D
:03001E00020000DD
:030000000200CC2F
:0C00CC00787FE4F6D8FD75812302011353
:1002AE00EB9FF5F0EA9E42F0E99D42F0EC6480C8C7
:0602BE0064809845F02267
:1000D800020158E493A3F8E493A34003F68001F2E5
:1000E80008DFF48029E493A3F85407240CC8C33329
:1000F800C4540F4420C8834004F456800146F6DFF8
:10010800E4800B0102040810204080900217E47E6E
:10011800019360BCA3FF543F30E509541FFEE493EC
:10012800A360010ECF54C025E060A840B8E493A3B3
:10013800FAE493A3F8E493A3C8C582C8CAC583CADE
:10014800F0A3C8C582C8CAC583CADFE9DEE780BE96
:0102470000B6
:00000001FF
