:100000000200B38F993099FDC2992202013F12017B
:10001000E1BF01020518E518D394094003E4F5187F
:0100200022BD
:1000230002028512025812028E1201ACEF64014ED5
:100033007004C29180091201ACEF4E7002D291128A
:10004300000E740C2518F8E6F5A01201E1BF02D6E4
:10005300120295E4F52112023DE51A640145197077
:1000630019E521D395184005E4F521800DC3E51862
:100073009521F517240CF8E6F5A01201ACEF640105
:100083004E7004C29180091201ACEF4E7002D291FE
:10009300E51770C5D29112028E850CA0E4F519F50F
:1000A3001A7F03120003E516B402AE12029C80A964
:1000B300787FE4F6D8FD7581220200FA020026E477
:1000C30093A3F8E493A34003F68001F208DFF480DE
:1000D30029E493A3F85407240CC8C333C4540F442E
:1000E30020C8834004F456800146F6DFE4800B0108
:1000F30002040810204080900214E47E019360BC47
:10010300A3FF543F30E509541FFEE493A360010E9F
:10011300CF54C025E060A840B8E493A3FAE493A3C6
:10012300F8E493A3C8C582C8CAC583CAF0A3C8C5E7
:1001330082C8CAC583CADFE9DEE780BEC0E0C0D09B
:10014300758A33758CFE051CE51C7002051B051EA4
:10015300E51E7002051DB4200DE51DB44E080521F2
:10016300751D00751E00E521B40903752100C3E563
:100173001C9428E51B94004006751B00751C00D3D6
:10018300E51C9520E51B951F5002D292D3E51C95E3
:1001930020E51B951F400DD3E51C9428E51B940017
:1001A3005002C292D0D0D0E03285080A85090B20D4
:1001B30090117F647E0012026F209007E4F508F52A
:1001C300098006750800750901E5094508600BE516
:1001D3000B450A60057E007F0122E4FEFF22E4F561
:1001E300222093137F14FE12026F3093FD7F147E3F
:1001F3000012026F7522012094147F147E001202F4
:100203006F3094FD7F147E0012026F752202AF22BD
:1002130022021900010118000117000116000A0C3F
:100223003F065B4F666D7D077F6F02080000020A81
:100233000000012100021F000000438780759850D1
:1002430053890F438920758BFA758DFAC2ABD28E11
:10025300D2AFD2AC225389F0438901758A33758CAE
:10026300FEC28DD28CD2A9D2AFD2B922EF1FAC0677
:1002730070011E4C600B007D027CC7DCFEDDFC8040
:10028300EB22309805859916C29832751F007520A8
:0C0293000122751F0075200322020000EC
:00000001FF
