:0A000000020026751F007520012282
:10000B000201301201D2BF01020518E518D3940981
:06001B004003E4F5182289
:10002300020276787FE4F6D8FD75812202006D0224
:1000330000B2E493A3F8E493A34003F68001F2082B
:10004300DFF48029E493A3F85407240CC8C333C412
:10005300540F4420C8834004F456800146F6DFE47D
:10006300800B0102040810204080900205E47E0109
:100073009360BCA3FF543F30E509541FFEE493A3F0
:1000830060010ECF54C025E060A840B8E493A3FA02
:10009300E493A3F8E493A3C8C582C8CAC583CAF08E
:1000A300A3C8C582C8CAC583CADFE9DEE780BE121A
:1000B300024912000312019DEF64014E7004C291C4
:1000C300800912019DEF4E7002D29112000E740C42
:1000D3002518F8E6F5A01201D2BF02D612027FE47A
:1000E300F52112022EE51A640145197019E521D391
:1000F30095184005E4F521800DC3E5189521F51702
:10010300240CF8E6F5A0E517700B120003850CA08C
:10011300E4F519F51A12019DEF64014E7004C291C2
:1001230080C312019DEF4E70BCD29180B8C0E0C075
:10013300D0758A33758CFE051CE51C7002051B0502
:100143001EE51E7002051DB4200DE51DB44E080505
:1001530021751D00751E00E521B40903752100C337
:10016300E51C9428E51B94004006751B00751C00D4
:10017300D3E51C9520E51B951F5002D292D3E51CB5
:100183009520E51B951F400DD3E51C9428E51B9492
:10019300005002C292D0D0D0E03285080A85090B04
:1001A3002090117F647E00120260209007E4F5081E
:1001B300F5098006750800750901E5094508600B16
:1001C300E50B450A60057E007F0122E4FEFF22E481
:1001D300F5222093137F14FE1202603093FD7F14E7
:1001E3007E001202607522012094147F147E001297
:1001F30002603094FD7F147E00120260752202AF0C
:100203002222021900010118000117000116000A39
:100213000C3F065B4F666D7D077F6F02080000028F
:100223000A0000012100021F000000438780759827
:100233005053890F438920758BFA758DFAC2ABD25F
:100243008ED2AFD2AC225389F0438901758A3375BC
:100253008CFEC28DD28CD2A9D2AFD2B922EF1FAC01
:100263000670011E4C600B007D027CC7DCFEDDFCCA
:1002730080EB22309805859916C29832751F007558
:0302830020032233
:00000001FF
